{
  "_format": "hh-sol-artifact-1",
  "contractName": "Assessment",
  "sourceName": "contracts/Assessment.sol",
  "abi": [
    {
      "inputs": [
        {
          "internalType": "uint256",
          "name": "initBalance",
          "type": "uint256"
        }
      ],
      "stateMutability": "payable",
      "type": "constructor"
    },
    {
      "inputs": [
        {
          "internalType": "uint256",
          "name": "balance",
          "type": "uint256"
        },
        {
          "internalType": "uint256",
          "name": "withdrawAmount",
          "type": "uint256"
        }
      ],
      "name": "InsufficientBalance",
      "type": "error"
    },
    {
      "anonymous": false,
      "inputs": [
        {
          "indexed": false,
          "internalType": "uint256",
          "name": "amount",
          "type": "uint256"
        }
      ],
      "name": "Deposit",
      "type": "event"
    },
    {
      "anonymous": false,
      "inputs": [
        {
          "indexed": false,
          "internalType": "uint256",
          "name": "amount",
          "type": "uint256"
        }
      ],
      "name": "Withdraw",
      "type": "event"
    },
    {
      "inputs": [],
      "name": "balance",
      "outputs": [
        {
          "internalType": "uint256",
          "name": "",
          "type": "uint256"
        }
      ],
      "stateMutability": "view",
      "type": "function"
    },
    {
      "inputs": [
        {
          "internalType": "uint256",
          "name": "_amount",
          "type": "uint256"
        }
      ],
      "name": "deposit",
      "outputs": [],
      "stateMutability": "payable",
      "type": "function"
    },
    {
      "inputs": [],
      "name": "getBalance",
      "outputs": [
        {
          "internalType": "uint256",
          "name": "",
          "type": "uint256"
        }
      ],
      "stateMutability": "view",
      "type": "function"
    },
    {
      "inputs": [],
      "name": "owner",
      "outputs": [
        {
          "internalType": "address payable",
          "name": "",
          "type": "address"
        }
      ],
      "stateMutability": "view",
      "type": "function"
    },
    {
      "inputs": [
        {
          "internalType": "uint256",
          "name": "_withdrawAmount",
          "type": "uint256"
        }
      ],
      "name": "withdraw",
      "outputs": [],
      "stateMutability": "payable",
      "type": "function"
    }
  ],
  "bytecode": "0x6080604052604051610732380380610732833981810160405281019061002591906100ad565b336000806101000a81548173ffffffffffffffffffffffffffffffffffffffff021916908373ffffffffffffffffffffffffffffffffffffffff16021790555080600181905550506100da565b600080fd5b6000819050919050565b61008a81610077565b811461009557600080fd5b50565b6000815190506100a781610081565b92915050565b6000602082840312156100c3576100c2610072565b5b60006100d184828501610098565b91505092915050565b610649806100e96000396000f3fe60806040526004361061004a5760003560e01c806312065fe01461004f5780632e1a7d4d1461007a5780638da5cb5b14610096578063b69ef8a8146100c1578063b6b55f25146100ec575b600080fd5b34801561005b57600080fd5b50610064610108565b60405161007191906103ac565b60405180910390f35b610094600480360381019061008f91906103f8565b610112565b005b3480156100a257600080fd5b506100ab610263565b6040516100b89190610466565b60405180910390f35b3480156100cd57600080fd5b506100d6610287565b6040516100e391906103ac565b60405180910390f35b610106600480360381019061010191906103f8565b61028d565b005b6000600154905090565b60008054906101000a900473ffffffffffffffffffffffffffffffffffffffff1673ffffffffffffffffffffffffffffffffffffffff163373ffffffffffffffffffffffffffffffffffffffff16146101a0576040517f08c379a000000000000000000000000000000000000000000000000000000000815260040161019790610504565b60405180910390fd5b600060015490508160015410156101f257600154826040517fcf4791810000000000000000000000000000000000000000000000000000000081526004016101e9929190610524565b60405180910390fd5b8160016000828254610204919061057c565b925050819055508181610217919061057c565b60015414610228576102276105b0565b5b7f5b6b431d4476a211bb7d41c20d1aab9ae2321deee0d20be3d9fc9b1093fa6e3d8260405161025791906103ac565b60405180910390a15050565b60008054906101000a900473ffffffffffffffffffffffffffffffffffffffff1681565b60015481565b6000600154905060008054906101000a900473ffffffffffffffffffffffffffffffffffffffff1673ffffffffffffffffffffffffffffffffffffffff163373ffffffffffffffffffffffffffffffffffffffff1614610322576040517f08c379a000000000000000000000000000000000000000000000000000000000815260040161031990610504565b60405180910390fd5b816001600082825461033491906105df565b92505081905550818161034791906105df565b60015414610358576103576105b0565b5b7f4d6ce1e535dbade1c23defba91e23b8f791ce5edc0cc320257a2b364e4e384268260405161038791906103ac565b60405180910390a15050565b6000819050919050565b6103a681610393565b82525050565b60006020820190506103c1600083018461039d565b92915050565b600080fd5b6103d581610393565b81146103e057600080fd5b50565b6000813590506103f2816103cc565b92915050565b60006020828403121561040e5761040d6103c7565b5b600061041c848285016103e3565b91505092915050565b600073ffffffffffffffffffffffffffffffffffffffff82169050919050565b600061045082610425565b9050919050565b61046081610445565b82525050565b600060208201905061047b6000830184610457565b92915050565b600082825260208201905092915050565b7f596f7520617265206e6f7420746865206f776e6572206f66207468697320616360008201527f636f756e74000000000000000000000000000000000000000000000000000000602082015250565b60006104ee602583610481565b91506104f982610492565b604082019050919050565b6000602082019050818103600083015261051d816104e1565b9050919050565b6000604082019050610539600083018561039d565b610546602083018461039d565b9392505050565b7f4e487b7100000000000000000000000000000000000000000000000000000000600052601160045260246000fd5b600061058782610393565b915061059283610393565b92508282039050818111156105aa576105a961054d565b5b92915050565b7f4e487b7100000000000000000000000000000000000000000000000000000000600052600160045260246000fd5b60006105ea82610393565b91506105f583610393565b925082820190508082111561060d5761060c61054d565b5b9291505056fea2646970667358221220dcc5030bb2171297dd701d1c21f8811cfbea95484a7171051d321c086da1414264736f6c63430008110033",
  "linkReferences": {},
  "deployedLinkReferences": {}
}